S0140000554152545F506F6C6C696E672E73726563A0
S11300000C942A000C943F000C943F000C943F0085
S11300100C943F000C943F000C943F000C943F0060
S11300200C943F000C943F000C943F000C943F0050
S11300300C943F000C943F000C943F000C943F0040
S11300400C943F000C943F000C943F000C943F0030
S11300500C943F0011241FBECFE5D8E0DEBFCDBF16
S113006010E0A0E6B0E0E0EFF0E002C005900D92F1
S1130070AA38B107D9F70E9462000C9476000C9458
S1130080000087E689B988E18AB986E880BD0895C9
S11300905D9BFECF8CB908950F931F93CF93FC0102
S11300A08081882359F08F01C0E00E944800CF5F0F
S11300B0F801EC0FF11D80818111F7CFCF911F91D1
S11300C00F9108950E94410080E690E00E944C0048
S11300D089E790E00E944C002FEF83ED90E32150DC
S11300E080409040E1F700C00000F2CFF894FFCFC9
S11300F057656C636F6D6520746F20496E7465720B
S1130100666163696E670D0A00526F626F74204303
S10D01106F6D6D616E640D0A00004E
S9030000FC
