:100000000C942A000C9434000C9434000C943400AA
:100010000C9434000C9434000C9434000C94340090
:100020000C9434000C9434000C9434000C94340080
:100030000C9434000C9434000C9434000C94340070
:100040000C9434000C9434000C9434000C94340060
:100050000C94340011241FBECFE5D8E0DEBFCDBF25
:100060000E9445000C9465000C94000087B3806AE0
:1000700087BB84B3856084BB8DB181658DB90895DC
:100080008FB9779BFECF8FB108950E943600C4E0F0
:10009000A8988AEA0E944000A89A2FEF33ED90E3D7
:1000A000215030409040E1F700C00000853581F7D5
:1000B00085B38C2785BB2FEF33ED80E32150304093
:0E00C0008040E1F700C00000E3CFF894FFCFCE
:00000001FF
