S01000005350495F4D7374722E7372656323
S11300000C942A000C9434000C9434000C943400A6
S11300100C9434000C9434000C9434000C9434008C
S11300200C9434000C9434000C9434000C9434007C
S11300300C9434000C9434000C9434000C9434006C
S11300400C9434000C9434000C9434000C9434005C
S11300500C94340011241FBECFE5D8E0DEBFCDBF21
S11300600E943B000C945C000C9400008FB9779BB9
S1130070FECF8FB108950E94590080EA87BBB89AD9
S113008084B3856084BBA898C4E0A89881E30E94E7
S11300903600A89A8233C9F785B38C2785BB2FEF26
S11300A083ED90E3215080409040E1F700C00000D0
S10F00B0ECCF81E58DB90895F894FFCFE2
S9030000FC
