:100000000C942A000C9434000C9434000C943400AA
:100010000C9434000C9434000C9434000C94340090
:100020000C9434000C9434000C9434000C94340080
:100030000C9434000C9434000C9434000C94340070
:100040000C9434000C9434000C9434000C94340060
:100050000C94340011241FBECFE5D8E0DEBFCDBF25
:100060000E943F000C9455000C94000080E48DB970
:10007000BE9A08958FB9779BFECF8FB108950E94E5
:100080003600A29AC4E082E30E943A008133D9F795
:1000900085B38C2785BB2FEF83ED90E32150804003
:0E00A0009040E1F700C00000EECFF894FFCFD3
:00000001FF
