S017000044494F5F50756C6C75705F746573742E7372656331
S11300000C942A000C9434000C9434000C943400A6
S11300100C9434000C9434000C9434000C9434008C
S11300200C9434000C9434000C9434000C9434007C
S11300300C9434000C9434000C9434000C9434006C
S11300400C9434000C9434000C9434000C9434005C
S11300500C94340011241FBECFE5D8E0DEBFCDBF21
S11300600E9438000C9454000C940000D99A08950E
S1130070D098D89AD19AC89915C02FEF86E791E005
S1130080215080409040E1F700C000000E943600FB
S11300902FEF81EE94E0215080409040E1F700C0C2
S10F00A00000E9CFD998E7CFF894FFCF17
S9030000FC
