S010000044494F5F546573742E7372656339
S11300000C942A000C9434000C9434000C943400A6
S11300100C9434000C9434000C9434000C9434008C
S11300200C9434000C9434000C9434000C9434007C
S11300300C9434000C9434000C9434000C9434006C
S11300400C9434000C9434000C9434000C9434005C
S11300500C94340011241FBECFE5D8E0DEBFCDBF21
S11300600E943D000C9473000C940000D39AA29A51
S1130070B8988B9A8A98D29A08950E943600DA9A90
S11300802FEF83ED90E3215080409040E1F700C0D2
S1130090000093982FEF83ED90E32150804090402F
S11300A0E1F700C00000939A2FEF80E792E021501F
S11300B080409040E1F700C0000093982FEF80E764
S11300C092E0215080409040E1F700C00000829B04
S11300D0D6CF2FEF86E791E0215080409040E1F7A2
S10D00E000C00000CCCFF894FFCF5D
S9030000FC
