S01600004B505F496E746572666163696E672E73726563AA
S11300000C942A000C9447000C9447000C9447006D
S11300100C9447000C9447000C9447000C94470040
S11300200C9447000C9447000C9447000C94470030
S11300300C9447000C9447000C9447000C94470020
S11300400C9447000C9447000C9447000C94470010
S11300500C94470011241FBECFE5D8E0DEBFCDBF0E
S113006010E0A0E6B0E0ECEDF4E002C005900D92E3
S1130070A23BB107D9F720E0A2EBB0E001C01D928A
S1130080A33BB207E1F70E9438020C946C020C9473
S11300900000813041F028F0823039F0833039F0AB
S11300A008956BBB089568BB089565BB089562BB52
S11300B00895982F9770869586958695813021F1BD
S11300C030F08230F1F1833009F458C008956111A1
S11300D00EC04BB321E030E0B90102C0660F771FB8
S11300E09A95E2F7CB01809584238BBB08954BB39B
S11300F021E030E0B90102C0660F771F9A95E2F75C
S1130100CB01842B8BBB089561110EC048B321E051
S113011030E0B90102C0660F771F9A95E2F7CB0170
S11301208095842388BB089548B321E030E0B90169
S113013002C0660F771F9A95E2F7CB01842B88BB28
S1130140089561110EC045B321E030E0B90102C049
S1130150660F771F9A95E2F7CB018095842385BBC0
S1130160089545B321E030E0B90102C0660F771F5E
S11301709A95E2F7CB01842B85BB089561110EC0DB
S113018042B321E030E0B90102C0660F771F9A95AF
S1130190E2F7CB018095842382BB089542B321E02A
S11301A030E0B90102C0660F771F9A95E2F7CB01E0
S11301B0842B82BB0895282F277086958695869573
S11301C0813081F028F08230B9F08330F9F027C013
S11301D089B390E002C0959587952A95E2F7982F08
S11301E091701DC086B390E002C0959587952A95BD
S11301F0E2F7982F917013C083B390E002C09595F5
S113020087952A95E2F7982F917009C080B390E002
S113021002C0959587952A95E2F7982F9170892FBA
S11302200895E1E6F0E080E041E050E0382F3770D7
S1130230982F96959695969520812130A1F5913029
S113024089F028F09230C9F0933011F163C09AB369
S1130250BA0102C0660F771F3A95E2F79B01292B7A
S11302602ABB58C097B3BA0102C0660F771F3A95EC
S1130270E2F79B01292B27BB4DC094B3BA0102C0FE
S1130280660F771F3A95E2F79B01292B24BB42C0E6
S113029091B3BA0102C0660F771F3A95E2F79B014A
S11302A0292B21BB37C0913091F028F09230D9F03E
S11302B0933029F12FC02AB3BA0102C0660F771F09
S11302C03A95E2F7962F909592239ABB23C027B3D1
S11302D0BA0102C0660F771F3A95E2F7962F909500
S11302E0922397BB17C024B3BA0102C0660F771FCD
S11302F03A95E2F7962F9095922394BB0BC021B3C5
S1130300BA0102C0660F771F3A95E2F7962F9095CF
S1130310922391BB8F5F3296803209F087CF089584
S1130320CF93C82F83E190E00E94DB00892B29F44E
S1130330CC0FCC0FC093600023C084E190E00E94F6
S1130340DB00892B31F4CC0FCC0FCF5FC09360005E
S113035017C085E190E00E94DB00892B31F4CC0FBB
S1130360CC0FCE5FC09360000BC086E190E00E948A
S1130370DB00892B29F4CC0FCC0FCD5FC093600038
S1130380CF91089560E070E08DE090E00E94590004
S113039061E070E08EE090E00E94590061E070E05E
S11303A08FE090E00E94590061E070E080E090E00E
S11303B00E94590080E00E94900161E070E08DE0AD
S11303C090E00E94590060E070E08EE090E00E94AE
S11303D0590061E070E08FE090E00E94590061E014
S11303E070E080E090E00E94590081E00E9490015A
S11303F061E070E08DE090E00E94590061E070E0FF
S11304008EE090E00E94590060E070E08FE090E0A0
S11304100E94590061E070E080E090E00E94590081
S113042082E00E94900161E070E08DE090E00E9423
S1130430590061E070E08EE090E00E94590061E0B4
S113044070E08FE090E00E94590060E070E080E08E
S113045090E00E94590083E00E9490018091600026
S11304608F3F29F0E82FF0E0EF55FF4F808108958A
S11304700E94110168E782E00E9449000E94C201C3
S11304808093B20083EC99E00197F1F700C000007B
S11304908091B2008033A9F461E082E10E945900A6
S11304A087EA91E60197F1F700C0000060E082E17D
S11304B00E94590087EA91E60197F1F700C0000015
S11304C0DDCF60E082E10E94590087EA91E601975E
S10F04D0F1F700C00000D2CFF894FFCF79
S11304DCFF01000100010001000100010001000105
S11304EC00010001000100010001000100010001F4
S11304FC00010001000100000000000000000001E8
S113050C00010001000100010001000100010001D3
S113051C003132334134353642373839432A3023AB
S105052C440085
S9030000FC
