:100000000C942A000C9434000C9434000C943400AA
:100010000C9434000C9434000C9434000C94340090
:100020000C9434000C9434000C9434000C94340080
:100030000C9434000C9434000C9434000C94340070
:100040000C9434000C9434000C9434000C94340060
:100050000C94340011241FBECFE5D8E0DEBFCDBF25
:100060000E943B000C945B000C9400008FB9779BBE
:10007000FECF8FB10895BE9ABC98A29A6E9AC4E042
:1000800085E50E9436002FEF33ED90E3215030409C
:100090009040E1F700C000008A3A91F785B38C27C1
:1000A00085BB2FEF33ED80E3215030408040E1F7F6
:0A00B00000C00000E5CFF894FFCF78
:00000001FF
