S01500005457495F4D7374725F414D49542E737265638C
S11300000C942A000C9434000C9434000C943400A6
S11300100C9434000C9434000C9434000C9434008C
S11300200C9434000C9434000C9434000C9434007C
S11300300C9434000C9434000C9434000C9434006C
S11300400C9434000C9434000C9434000C9434005C
S11300500C94340011241FBECFE5D8E0DEBFCDBF21
S11300600E945C000C9484000C94000084EA86BF17
S113007006B607FEFDCF81B1887F8830E1F7089589
S113008083B984E886BF06B607FEFDCF81B1887FB9
S11300908831E1F7089583B984E886BF06B607FE80
S11300A0FDCF81B1887F8832E1F7089584E986BF66
S11300B006B607FEFDCF089588E080B90E94360099
S11300C02FEF81EE94E0215080409040E1F700C092
S11300D0000080E30E9440002FEF81EE94E0215065
S11300E080409040E1F700C000008DE40E944B0086
S11300F02FEF81EE94E0215080409040E1F700C062
S10F010000000E945600DACFF894FFCFF4
S9030000FC
